:100000000C9446000C9465000C9465000C946500FB
:100010000C9465000C9465000C9465000C946500CC
:100020000C9465000C9465000C9465000C946500BC
:100030000C9465000C9424010C9465000C946500EC
:100040000C9465000C9465000C9465000C9465009C
:100050000C9465000C9465000C9465000C9465008C
:100060000C9465000C9465000C9465000C9465007C
:100070000C9465000C9465000C9465000C9465006C
:100080000C9465000C9465000C94650011241FBE4F
:10009000CFEFD0E4DEBFCDBF11E0A0E0B1E0E6E6F7
:1000A000F7E000E00BBF02C007900D92AA38B1073D
:1000B000D9F711E0AAE8B1E001C01D92A739B10754
:1000C000E1F70E941A020C94B1030C940000CF9344
:1000D000C82F8A3019F48DE00E9467009091C0000B
:1000E00095FFFCCFC093C60080E090E0CF910895CB
:1000F000CF92DF92EF92FF926B017C0120919101F0
:100100003091920140919301509194010E943802E4
:10011000882309F458C020E030E0A901C701B601E6
:100120000E943802811106C0E1E9F0E08081887008
:10013000808305C0E1E9F0E080818360808328E569
:1001400039E344E75FE3C701B6010E943802882320
:100150003CF48FEF9FEF909399008093980027C015
:1001600020E034E244EF56E4C701B6010E944A039E
:1001700018162CF4109299001092980018C020E0E4
:1001800030E040E053E4C701B6010E944E039B01FA
:10019000AC0160E074E284EF9AE40E943C020E94A9
:1001A000A4026150710970939900609398001092B5
:1001B000950010929400C0929101D0929201E09229
:1001C0009301F0929401FF90EF90DF90CF9008950B
:1001D00080E4809390008BE08093910060E070E079
:1001E000CB010E9478000895109290001092910027
:1001F00008958BE0809381008DE790E090938900D3
:100200008093880082E080936F00109285001092A6
:1002100084008091000190910101A0910201B091B0
:10022000030180938B0190938C01A0938D01B09377
:100230008E018FB780688FBF089510928100089556
:1002400081E080938F0108951F920F920FB60F9255
:1002500011240BB60F922F933F934F935F936F939D
:100260007F938F939F93AF93BF93EF93FF9380916F
:100270008B0190918C01A0918D01B0918E0101971D
:10028000A109B10980938B0190938C01A0938D01FA
:10029000B0938E01892B8A2B8B2B91F40E94200125
:1002A0008091000190910101A0910201B0910301A0
:1002B00080938B0190938C01A0938D01B0938E015C
:1002C000FF91EF91BF91AF919F918F917F916F912E
:1002D0005F914F913F912F910F900BBE0F900FBEEA
:1002E0000F901F9018956093000170930101809307
:1002F00002019093030160938B0170938C018093B2
:100300008D0190938E0108958091950190919601B1
:100310008230910529F128F4009759F0019781F076
:100320006CC08330910509F440C0049709F456C0AD
:1003300064C081E090E090939601809395015DC048
:10034000009907C082E090E0909396018093950118
:1003500054C081E090E090939601809395014DC048
:1003600082E085B9E0919001F0E0EE0FFF1FEE0F03
:10037000FF1FEC5FFE4F60817181828193810E943B
:100380007800809190018E3138F483E090E0909372
:1003900096018093950131C08E3178F184E090E030
:1003A000909396018093950128C084E085B980914F
:1003B00090018F5F809390018E3138F482E090E05D
:1003C000909396018093950118C08E31B0F084E02F
:1003D00090E090939601809395010FC0009907C01B
:1003E00084E090E0909396018093950106C081E0AF
:1003F00090E0909396018093950180919501909162
:1004000096018130910549F018F0049771F0089534
:100410008FEF85B910929001089581E085B960E071
:1004200070E0CB010E94780008958FE085B91092AA
:100430009001089511B88FEF82B984B915B80E9460
:10044000E800109296011092950164E670E080E059
:1004500090E00E9473010E94F900109290010E94A6
:10046000840180918F018823E1F310928F01F7CFEF
:100470009CD008F481E008950CD0D2C0CAD040F0DE
:10048000C1D030F021F45F3F19F0B3C05111FCC06E
:10049000B6C0D7D098F39923C9F35523B1F3951B70
:1004A000550BBB27AA2762177307840738F09F5F95
:1004B0005F4F220F331F441FAA1FA9F333D00E2E04
:1004C0003AF0E0E830D091505040E695001CCAF771
:1004D00029D0FE2F27D0660F771F881FBB1F261736
:1004E00037074807AB07B0E809F0BB0B802DBF0109
:1004F000FF2793585F4F2AF09E3F510568F079C05F
:10050000C3C05F3FECF3983EDCF386957795679523
:10051000B795F7959F5FC9F7880F911D96958795B9
:1005200097F90895E1E0660F771F881FBB1F6217D8
:1005300073078407BA0720F0621B730B840BBA0B96
:10054000EE1F88F7E095089504D06894B1119CC01F
:1005500008957FD088F09F5790F0B92F9927B75111
:10056000A0F0D1F0660F771F881F991F1AF0BA9577
:10057000C9F712C0B13081F086D0B1E0089583C0D0
:10058000672F782F8827B85F39F0B93FCCF386956D
:1005900077956795B395D9F73EF4909580957095CA
:1005A00061957F4F8F4F9F4F0895990F0008550F0A
:1005B000AA0BE0E8FEEF16161706E807F907C0F0E9
:1005C00012161306E407F50798F0621B730B840BF1
:1005D000950B39F40A2661F0232B242B252B21F4CB
:1005E00008950A2609F4A140A6958FEF811D811D6B
:1005F000089597F99F6780E870E060E008959FEFA5
:1006000080EC089500240A941616170618060906A9
:10061000089500240A941216130614060506089578
:10062000092E0394000C11F4882352F0BB0F40F400
:10063000BF2B11F460FF04C06F5F7F4F8F4F9F4F40
:10064000089557FD9058440F551F59F05F3F71F0C2
:100650004795880F97FB991F61F09F3F79F0879529
:100660000895121613061406551FF2CF4695F1DFB2
:1006700008C0161617061806991FF1CF8695710542
:10068000610508940895E894BB2766277727CB0176
:1006900097F908958ADF08F48FEF08950BD0C0CF43
:1006A000B1DF28F0B6DF18F0952309F0A2CFA7CF6D
:1006B0001124EACFC6DFA0F3959FD1F3950F50E048
:1006C000551F629FF001729FBB27F00DB11D639F04
:1006D000AA27F00DB11DAA1F649F6627B00DA11DAA
:1006E000661F829F2227B00DA11D621F739FB00D50
:1006F000A11D621F839FA00D611D221F749F3327C0
:10070000A00D611D231F849F600D211D822F762F58
:100710006A2F11249F5750408AF0E1F088234AF055
:10072000EE0FFF1FBB1F661F771F881F91505040A1
:10073000A9F79E3F510570F05CCFA6CF5F3FECF369
:10074000983EDCF3869577956795B795F795E7958D
:100750009F5FC1F7FE2B880F911D9695879597F99E
:060760000895F894FFCF9C
:100766000100000000D00244A4D082430000C4432C
:10077600A4D0A443A4F0F6430000DC430000DC430D
:100786000000DC430000DC437BD4924300D00244EB
:10079600A4D082430000C443A4D0A443A4F0F643EB
:1007A6000000DC430000DC43A4F0F64300D0024422
:1007B6007BD4924300D002440000000000000000F9
:1007C600AE47213FA4F0F6430000DC430000DC43C3
:1007D600A4F0F64300D002447BD49243000000020A
:0A07E60000000000670000000000A2
:00000001FF
