:100000000C9446000C9465000C9465000C946500FB
:100010000C9465000C9465000C9465000C946500CC
:100020000C9465000C9465000C9465000C946500BC
:100030000C9465000C9465000C9465000C946500AC
:100040000C9465000C9465000C9465000C9465009C
:100050000C9465000C9465000C9465000C9465008C
:100060000C9465000C9465000C9465000C9465007C
:100070000C9465000C9465000C9465000C9465006C
:100080000C9465000C9465000C94650011241FBE4F
:10009000CFEFD0E4DEBFCDBF11E0A0E0B1E0E0E7FC
:1000A000F2E000E00BBF02C007900D92AE30B10746
:1000B000D9F711E0AEE0B1E001C01D92A031B10767
:1000C000E1F70E9429010C9436010C940000CF93B3
:1000D000C82F8A3019F48DE00E9467009091C0000B
:1000E00095FFFCCFC093C60080E090E0CF910895CB
:1000F00080910E0190910F0182309105F1F128F469
:10010000009761F0019789F07BC08430910509F474
:1001100042C0D0F1059709F45DC072C081E090E063
:1001200090930F0180930E016BC080B1813039F440
:1001300082E090E090930F0180930E0161C080B146
:10014000823039F483E090E090930F0180930E01A8
:1001500057C080B1833039F485E090E090930F016F
:1001600080930E014DC080B1811107C081E090E005
:1001700090930F0180930E0143C084E090E0909330
:100180000F0180930E013CC084E090E090930F013A
:1001900080930E0135C080B1813019F080B182307A
:1001A00039F484E090E090930F0180930E0128C011
:1001B00080B18370833039F485E090E090930F0133
:1001C00080930E011DC081E090E090930F01809319
:1001D0000E0116C080B1813051F480B1823039F403
:1001E00085E090E090930F0180930E0109C080B1EB
:1001F000811106C081E090E090930F0180930E0181
:1002000080910E0190910F018230910569F018F4F0
:10021000892B39F008958330910581F00597B9F065
:10022000089587E088B9089588B1893018F089E089
:1002300088B9089588B18F5F88B9089588B1811110
:1002400002C018B8089588B1815088B9089518B8C7
:10025000089511B88FEF82B987B987E088B91092F5
:100260000F0110920E010E947800FDCFF894FFCF8D
:0E027000000000020000000067000000000017
:00000001FF
