:100000000C9446000C945D000C945D000C945D0013
:100010000C945D000C945D000C945D000C945D00EC
:100020000C945D000C945D000C945D000C945D00DC
:100030000C945D000C945D000C945D000C945D00CC
:100040000C945D000C945D000C945D000C945D00BC
:100050000C945D000C945D000C945D000C945D00AC
:100060000C945D000C945D000C945D000C945D009C
:100070000C945D000C945D000C945D000C945D008C
:100080000C945D000C945D000C945D0011241FBE67
:10009000CFEFD0E4DEBFCDBF11E0A0E0B1E0E4E6F9
:1000A000F1E000E00BBF02C007900D92AE30B10747
:1000B000D9F70E9476000C94B0000C940000CF9306
:1000C000C82F8A3019F48DE00E945F009091C00023
:1000D00095FFFCCFC093C60080E090E0CF910895DB
:1000E000EAE7F0E08081806E8083089511B88FEF99
:1000F00082B984B915B88AB91BB80E947000809182
:1001000078009091790080917800909179008F30FB
:10011000910510F021E025B98E31910510F023E012
:1001200025B98D32910510F027E025B98C33910562
:1001300010F02FE025B98B34910510F02FE125B98F
:100140008A35910510F02FE325B98936910510F015
:100150002FE725B988379105B0F28FEF85B9D3CF56
:04016000F894FFCF41
:0E01640000000002000000005F00000000002C
:00000001FF
