:100000000C944D000C946C000C946C000C946C00DF
:100010000C946C000C946C000C946C000C946C00B0
:100020000C946C000C946C000C946C000C946C00A0
:100030000C946C000C9417010C946C000C946C00E4
:100040000C946C000C946C000C946C000C946C0080
:100050000C946C000C946C000C946C000C946C0070
:100060000C946C000C946C000C946C000C946C0060
:100070000C946C000C946C000C946C000C946C0050
:100080000C946C000C946C000C946C0083018A013D
:100090009A01AA01C101D101BA0111241FBECFEFFB
:1000A000D0E4DEBFCDBF11E0A0E0B1E0E0E5F5E0D7
:1000B00000E00BBF02C007900D92AC31B107D9F739
:1000C00011E0ACE1B1E001C01D92A432B107E1F74B
:1000D0000E9477020C94A6020C94000040E050E0CD
:1000E0000CC000002F5F3F4F02C020E030E02730FF
:1000F00063E03607B4F34F5F5F4F48175907ACF31F
:1001000008955E9888B95F9A00005F9882E090E059
:100110000E946E00089581E00E948100089581315F
:1001200020F481580E948100089581550E94810029
:10013000089584E690E00E946E0088E30E948100AA
:1001400086E00E9481008FE00E94810081E00E9491
:1001500081008AE090E00E946E0008955E9A88B95E
:100160005F9A00005F9881E090E00E946E00089521
:10017000EF92FF920F931F93CF93DF93182FEB0112
:100180000E948B000EC001E0010F812F0E948F00A2
:100190007E018FEFE81AF80A88810E94AE00102FC6
:1001A000E70188818111EFCFDF91CF911F910F91EE
:1001B000FF90EF900895CF93C82F8A3019F48DE007
:1001C0000E94DB009091C00095FFFCCFC093C60059
:1001D00080E090E0CF9108958BE0809381008DE7DF
:1001E00090E0909389008093880082E080936F0074
:1001F0001092850010928400809102019091030179
:10020000A0910401B091050180931D0190931E01FE
:10021000A0931F01B09320018FB780688FBF08950E
:1002200010928100089581E08093210108951F922A
:100230000F920FB60F9211240BB60F922F933F938C
:100240004F935F936F937F938F939F93AF93BF93DE
:10025000EF93FF9380911D0190911E01A0911F01CA
:10026000B09120010197A109B10980931D019093DC
:100270001E01A0931F01B0932001892B8A2B8B2B89
:1002800091F40E9413018091020190910301A091C9
:100290000401B091050180931D0190931E01A0936C
:1002A0001F01B0932001FF91EF91BF91AF919F91FA
:1002B0008F917F916F915F914F913F912F910F900F
:1002C0000BBE0F900FBE0F901F9018956093020108
:1002D00070930301809304019093050160931D01C5
:1002E00070931E0180931F01909320010895E09167
:1002F0002201F0912301E730F10508F077C0EA5BB5
:10030000FF4F0C949D0281E090E090932301809335
:1003100022016CC0009907C084E090E09093230113
:100320008093220163C082E090E090932301809348
:1003300022015CC0009907C084E090E09093230103
:100340008093220153C083E090E090932301809337
:1003500022014CC0009907C084E090E090932301F3
:100360008093220143C081E090E090932301809329
:1003700022013CC085E090E090932301809322010C
:1003800035C0009B07C086E090E0909323018093E6
:1003900022012CC084E090E09093230180932201FD
:1003A00025C000991DC080910101811107C081E025
:1003B00090E0909323018093220118C0813039F49A
:1003C00081E090E090932301809322010FC082305E
:1003D00069F481E090E0909323018093220106C0AC
:1003E00085E090E090932301809322018091220187
:1003F0009091230182309105C1F028F4009771F0AB
:10040000019771F008958530910509F45DC086303B
:100410009105B9F0039709F069C00DC015B80895AA
:1004200081E085B910920101089582E085B981E0EB
:1004300080930101089584E085B982E080930101F1
:10044000089580910101811110C0809100018823DD
:1004500019F08150809300010E948B00809100016F
:1004600090E0C0960E94AE0008958130D9F480914A
:100470000001893018F48F5F809300010E948B0087
:100480008091000190E0C0960E94AE008091000132
:10049000893060F10E948B0064E171E081E00E948C
:1004A000B8000895823011F580910001882319F079
:1004B0008150809300010E948B008091000190E0A8
:1004C000C0960E94AE000895009B10C0809101016B
:1004D000811103C081E085B90895813019F482E06B
:1004E00085B90895823011F484E085B9089511B872
:1004F0008FEF82B984B915B887B918B88AB91BB813
:10050000109223011092220164E670E080E090E0F6
:100510000E9466010E94EC000E94990080910001F7
:1005200090E0C0960E94AE000E9477018091210168
:100530008823E1F310922101F7CFEE0FFF1F002473
:10054000001C0BBE0790F691E02D0994F894FFCFA4
:100550000803010000000000000200000000DB00B2
:0C05600000000000566963746F7279009F
:00000001FF
