:100000000C9446000C9465000C9465000C946500FB
:100010000C9465000C9465000C9465000C946500CC
:100020000C9465000C9465000C9465000C946500BC
:100030000C9465000C94A3000C9465000C9465006E
:100040000C9465000C9465000C9465000C9465009C
:100050000C9465000C9465000C9465000C9465008C
:100060000C9465000C9465000C9465000C9465007C
:100070000C9465000C9465000C9465000C9465006C
:100080000C9465000C9465000C94650011241FBE4F
:10009000CFEFD0E4DEBFCDBF11E0A0E0B1E0EAECED
:1000A000F6E000E00BBF02C007900D92A631B10749
:1000B000D9F711E0A6E1B1E001C01D92A832B10765
:1000C000E1F70E94D3020C9463030C940000CF93D9
:1000D000C82F8A3019F48DE00E9467009091C0000B
:1000E00095FFFCCFC093C60080E090E0CF910895CB
:1000F0008BE0809381008DE790E09093890080935E
:10010000880082E080936F00109285001092840036
:100110008091040190910501A0910601B091070121
:100120008093190190931A01A0931B01B0931C01B5
:100130008FB780688FBF089510928100089581E085
:1001400080931D0108951F920F920FB60F921124F4
:100150000BB60F922F933F934F935F936F937F93C1
:100160008F939F93AF93BF93EF93FF938091190168
:1001700090911A01A0911B01B0911C010197A10956
:10018000B1098093190190931A01A0931B01B093B8
:100190001C01892B8A2B8B2B91F40E949F0080914C
:1001A000040190910501A0910601B091070180938F
:1001B000190190931A01A0931B01B0931C01FF91A8
:1001C000EF91BF91AF919F918F917F916F915F91CF
:1001D0004F913F912F910F900BBE0F900FBE0F903C
:1001E0001F90189560930401709305018093060198
:1001F000909307016093190170931A0180931B017A
:1002000090931C01089580912401909125018130E3
:10021000910571F030F08230910589F00397B1F0CB
:100220001BC081E090E0909325018093240114C0CD
:1002300082E090E090932501809324010DC083E03B
:1002400090E0909325018093240106C081E090E026
:1002500090932501809324018091240190912501A0
:100260008230910549F08330910551F0019759F49E
:1002700081E080931801089582E080931801089529
:1002800084E08093180108958091220190912301C8
:100290008130910559F018F0029779F014C081E08F
:1002A00090E090932301809322010DC082E090E0C2
:1002B000909323018093220106C081E090E0909307
:1002C00023018093220180912201909123018130AA
:1002D000910519F0029729F0089588E0809317019D
:1002E00008951092170108958091200190912101A5
:1002F0008130910571F030F082309105E1F0039783
:1003000061F13CC081E090E0909321018093200155
:1003100035C0029907C082E090E09093210180935C
:1003200020012CC0029B2AC081E090E09093210123
:100330008093200123C0029907C083E090E090934E
:100340002101809320011AC0029B18C081E090E037
:10035000909321018093200111C0029907C082E08F
:1003600090E0909321018093200108C0029B06C079
:1003700081E090E090932101809320018091200101
:10038000909121018230910541F08330910549F02F
:10039000019749F410921601089580E180931601A7
:1003A00008951092160108958091260190912701D9
:1003B0008130910579F038F082309105C9F10397C9
:1003C00009F463C08EC081E090E090932701809390
:1003D000260187C080B190E0809590958370992721
:1003E000019739F482E090E09093270180932601F1
:1003F00078C080B190E0809590958370992702979E
:1004000039F483E090E0909327018093260169C03E
:1004100080B190E08095909583709927892B09F0A1
:1004200060C081E090E0909327018093260159C03D
:1004300080B190E08095909583709927019739F469
:1004400082E090E090932701809326014AC080B11A
:1004500090E08095909583709927029739F483E016
:1004600090E090932701809326013BC080B190E0FB
:100470008095909583709927892B99F581E090E07C
:1004800090932701809326012CC080B190E0809545
:10049000909583709927019739F482E090E09093CA
:1004A0002701809326011DC080B190E08095909532
:1004B00083709927029739F483E090E090932701A5
:1004C000809326010EC080B190E080959095837056
:1004D0009927892B31F481E090E090932701809354
:1004E000260180912601909127018230910519F013
:1004F0000397D1F008958091000190910101A0919E
:100500000201B091030182339105A105B10520F5E7
:100510000196A11DB11D8093000190930101A0934C
:100520000201B093030108958091000190910101AF
:10053000A0910201B091030182309105A105B1059E
:1005400058F00197A109B10980930001909301012E
:10055000A0930201B0930301089580911E01909130
:100560001F01009719F0019741F00DC081E090E064
:1005700090931F0180931E0106C081E090E090934C
:100580001F0180931E0180911E0190911F01019710
:1005900049F49091180180911701892B90911601CF
:1005A000892B85B90895CF93DF9300D000D0CDB7C4
:1005B000DEB711B88FEF82B984B915B81092250152
:1005C0001092240110922301109222011092210115
:1005D00010922001109227011092260110921F0103
:1005E00010921E0161E070E080E090E00E94F20055
:1005F0000E947800412C512C3201812C912C540105
:10060000C12CD12C760119821A821B821C8289810D
:100610009A81AB81BC81883B9B40A105B10530F03C
:100620000E94030119821A821B821C82F8EECF16E7
:10063000F3E0DF06E104F10428F00E944401C12C3C
:10064000D12C76018091000190910101A0910201CD
:10065000B091030188169906AA06BB0628F00E94ED
:100660007401812C912C54012CE2421621E0520697
:100670006104710428F00E94D401412C512C3201F4
:100680000E94AD0280911D018823E1F310921D01AB
:1006900089819A81AB81BC810196A11DB11D89839D
:1006A0009A83AB83BC839FEFC91AD90AE90AF90A76
:1006B000AFEF8A1A9A0AAA0ABA0ABFEF4B1A5B0A64
:0A06C0006B0A7B0AA4CFF894FFCF69
:1006CA00020000000100000000000002000000001B
:0606DA00670000000000B3
:00000001FF
