:100000000C9455000C9474000C9474000C947400BF
:100010000C9474000C9474000C9474000C94740090
:100020000C9474000C9474000C9474000C94740080
:100030000C9474000C9453010C9474000C94740090
:100040000C9474000C9474000C9474000C94740060
:100050000C9474000C9474000C9474000C94740050
:100060000C9474000C9474000C9474000C94740040
:100070000C9474000C9474000C9474000C94740030
:100080000C9474000C9474000C94740036033D03BB
:1000900044034B03520359036003720389039B0318
:1000A000AD03BF03D103E303F50311241FBECFEF5C
:1000B000D0E4DEBFCDBF11E0A0E0B1E0E2EBF8E0BC
:1000C00000E00BBF02C007900D92A237B107D9F72D
:1000D00011E0A2E7B1E001C01D92AF37B107E1F72F
:1000E0000E940B040C9457040C94000040E050E074
:1000F0000CC000002F5F3F4F02C020E030E02730EF
:1001000063E03607B4F34F5F5F4F48175907ACF30E
:1001100008955E9888B95F9A00005F9882E090E049
:100120000E947600089581E00E948900089585313B
:1001300020F481580E94890017C09BEE980F9431DB
:1001400020F485550E9489000FC097ED980F9431D7
:1001500020F485590E94890007C093EC980F9431D0
:1001600018F489560E9489008CE00E948900089545
:1001700084E690E00E94760088E30E94890086E091
:100180000E9489008FE00E94890081E00E9489001E
:100190008AE090E00E94760008955E9A88B95F9A9E
:1001A00000005F9882E090E00E9476000895EF9250
:1001B000FF920F931F93CF93DF93182FEB010E94B1
:1001C00093000EC001E0010F812F0E9497007E0175
:1001D0008FEFE81AF80A88810E94CD00102FE701FE
:1001E00088818111EFCFDF91CF911F910F91FF9007
:1001F000EF900895FF920F931F93CF93DF93EB013E
:100200000DC0FF24F394F80E0E9497008E010F5F3B
:100210001F4F88810E94CD008F2DE8019881911198
:10022000F0CFDF91CF911F910F91FF900895CF9361
:10023000C82F8A3019F48DE00E9417019091C000F8
:1002400095FFFCCFC093C60080E090E0CF91089569
:100250008BE0809381008DE790E0909389008093FC
:10026000880082E080936F001092850010928400D5
:1002700080910A0190910B01A0910C01B0910D01A8
:100280008093740190937501A0937601B0937701E8
:100290008FB780688FBF089510928100089581E024
:1002A0008093780108951F920F920FB60F92112438
:1002B0000BB60F922F933F934F935F936F937F9360
:1002C0008F939F93AF93BF93EF93FF9380917401AC
:1002D00090917501A0917601B09177010197A109E4
:1002E000B1098093740190937501A0937601B09346
:1002F0007701892B8A2B8B2B91F40E944F018091DF
:100300000A0190910B01A0910C01B0910D01809315
:10031000740190937501A0937601B0937701FF91DA
:10032000EF91BF91AF919F918F917F916F915F916D
:100330004F913F912F910F900BBE0F900FBE0F90DA
:100340001F90189560930A0170930B0180930C0124
:1003500090930D0160937401709375018093760101
:1003600090937701089580917B0190917C01813079
:10037000910559F018F0029721F1D8C081E090E082
:1003800090937C0180937B01D1C0009911C082E0E1
:1003900090E090937C0180937B0180917901909112
:1003A0007A01019709F0C2C081E080937201BEC05A
:1003B000009BBCC081E090E090937C0180937B0126
:1003C000B5C080910901833120F48F5F80930901CA
:1003D000ADC0833108F4AAC080917201813039F434
:1003E00010927201809173018F5F809373018091ED
:1003F0007301863099F49091050180910401892B55
:1004000090910301892B90910201892B9091010118
:10041000892B90910001892B809585B9809173017A
:10042000853081F49091050180910401892B909190
:100430000301892B90910201892B90910101892B55
:10044000809585B980917301843069F4909106019B
:1004500080910401892B90910301892B90910201D5
:10046000892B809585B980917301833081F49091B7
:10047000060180910501892B90910301892B9091B0
:100480000201892B90910101892B809585B980917A
:100490007301823081F49091060180910501892BCE
:1004A00090910301892B90910101892B909100017A
:1004B000892B809585B980917301813039F49091B1
:1004C000060180910201892B809585B98091730185
:1004D000811113C09091060180910501892B9091A3
:1004E0000401892B90910201892B90910101892BA4
:1004F00090910001892B809585B98091080188230E
:1005000019F081508093080180910801811108C081
:100510001BB883E090E090937C0180937B0106C040
:1005200081E090E090937C0180937B0180917B013E
:1005300090917C018130910529F140F08230910544
:1005400009F459C0039709F466C0089581E08093C7
:10055000090186E0809308019091060180910501D0
:10056000892B90910401892B90910301892B909103
:100570000201892B90910101892B90910001892B17
:1005800085B9089581E0809309016CE171E00E94D2
:10059000D7002FEF80E792E0215080409040E1F7B4
:1005A00000C0000080910801863011F48FE38BB900
:1005B00080910801853011F48FE18BB98091080199
:1005C000843011F48FE08BB980910801833011F4ED
:1005D00087E08BB980910801823011F483E08BB9F8
:1005E00080910801813009F48BB980910801811153
:1005F00031C01BB808956CE171E0809109010E943F
:10060000D7002FEF80E792E0215080409040E1F743
:1006100000C0000008956EE171E081E00E94D70003
:100620002FEF82E597E0215080409040E1F700C035
:10063000000086E20E94970080917301805D0E9415
:10064000CD002FEF82E597E0215080409040E1F708
:1006500000C000000895E0917901F0917A01E7303F
:10066000F105A0F5EA5BFF4F0C944E0481E090E0A9
:1006700090937A018093790129C082E090E0909371
:100680007A018093790122C083E090E090937A010F
:10069000809379011BC084E090E090937A0180936D
:1006A000790114C085E090E090937A0180937901FC
:1006B0000DC086E090E090937A018093790106C0A6
:1006C00081E090E090937A0180937901E091790143
:1006D000F0917A01E830F10508F09BC0E35BFF4F31
:1006E0000C944E041092070162E471E083E10E94D1
:1006F000D70062E471E087E20E94D70062E471E013
:100700008BE30E94D70062E471E08FE40E94D7007F
:10071000089581E08093070164E471E083E10E9421
:10072000D7002FEF80E792E0215080409040E1F722
:1007300000C00000089582E08093070164E471E046
:1007400087E20E94D7002FEF80E792E0215080409F
:100750009040E1F700C00000089583E08093070116
:1007600064E471E08BE30E94D7002FEF80E792E012
:10077000215080409040E1F700C00000089584E0DF
:100780008093070164E471E08FE40E94D7002FEFAB
:1007900080E792E0215080409040E1F700C00000E7
:1007A000089583E08093070164E471E08BE30E9485
:1007B000D7002FEF80E792E0215080409040E1F792
:1007C00000C00000089582E08093070164E471E0B6
:1007D00087E20E94D7002FEF80E792E0215080400F
:1007E0009040E1F700C00000089564E471E083E107
:1007F0000E94D70064E471E087E20E94D70064E4BD
:1008000071E08BE30E94D70064E471E08FE40E9402
:10081000D7000895089511B88FEF82B984B915B83B
:1008200087B918B88AB91BB810927C0110927B0165
:1008300010927A011092790110927E0110927D013E
:1008400060E570E080E090E00E94A2010E94280133
:100850000E94B8000E94930080E00E94970089E304
:100860000E94CD0066E471E081E00E94D7000E9402
:10087000B3018FE19EE40197F1F700C000000E94F0
:100880002B038FE19EE40197F1F700C000008091F7
:1008900078018823E1F310927801E9CFEE0FFF1F72
:1008A0000024001C0BBE0790F691E02D0994F894EB
:0208B000FFCF78
:1008B20040201008040201010601010000000000AE
:1008C2000002000000001701000000003E00474146
:1008D2004D45204F5645522C2052414E204F5554E3
:1008E20020204F4620414D4D4F212053434F52452A
:1008F200203D20004000323334353637383930312C
:10090200323334353637383930313233343536379D
:1009120038393020326E6420726F772068616C66DD
:020922000000D3
:00000001FF
